:020000040800F2
:1000000068060020050200080D0200080F02000823
:100010001102000813020008150200080000000089
:1000200000000000000000000000000017020008AF
:1000300019020008000000001B0200081D02000851
:100040001F0200081F0200081F0200081F0200080C
:100050001F0200081F0200081F0200081F020008FC
:100060001F0200081F0200081F0200081F020008EC
:100070001F0200081F0200081F0200081F020008DC
:100080001F0200081F0200081F0200081F020008CC
:100090001F0200081F0200081F0200081F020008BC
:1000A0001F0200081F0200081F0200081F020008AC
:1000B0001F0200081F0200081F0200081F0200089C
:1000C0001F0200081F0200081F0200081F0200088C
:1000D0001F0200081F0200081F0200081F0200087C
:1000E0001F0200081F0200081F02000800F002F8AB
:1000F00000F03AF80AA090E8000C82448344AAF188
:100100000107DA4501D100F02FF8AFF2090EBAE885
:100110000F0013F0010F18BFFB1A43F0010318473B
:100120006404000084040000103A24BF78C878C139
:10013000FAD8520724BF30C830C144BF04680C60ED
:10014000704700000023002400250026103A28BF35
:1001500078C1FBD8520728BF30C148BF0B60704739
:100160001FB51FBD10B510BD00F0CAF91146FFF74D
:10017000F7FF00F029F800F0E8F903B4FFF7F2FF09
:1001800003BC00F0EFF9000081B00090FFE7009899
:10019000012804DBFFE7009801380090F7E701B081
:1001A000704700BF41F21801C4F20201086840F034
:1001B0001C00086041F20401C4F2010144F2444011
:1001C000C4F234400860704780B584B000200390CA
:1001D000FFF7E8FFFFE741F21001C4F201010191CE
:1001E0004FF4005008604CF2C060C0F22D00029045
:1001F000FFF7CAFF019A02984FF000511160FFF714
:10020000C3FFE8E70948804709480047FEE7FEE7E3
:10021000FEE7FEE7FEE7FEE7FEE7FEE7FEE7FEE7B6
:1002200004480549054A064B70470000450200088E
:10023000ED00000868000020680600206802002029
:100240006802002080B541F20002C4F20202106888
:1002500040F00100106041F20401C4F2020108689C
:100260000023CFF6FF031840086010684FF6FF73B5
:10027000CFF6F66318401060106820F480201060FC
:10028000086820F4FE00086041F20801C4F202018F
:100290004FF41F00086000F009F84EF60851CEF246
:1002A00000014FF00060086080BD00BF80B500F025
:1002B00093F880BD84B0002003900290019041F239
:1002C0000400C4F20200006800F00C0003900398E0
:1002D000009040B1FFE7009804280ED0FFE7009897
:1002E000082814D056E040F20001C2F2000141F2A9
:1002F0000020C0F27A00086056E040F20001C2F22D
:10030000000141F20020C0F27A0008604CE041F2A6
:100310000400C4F20200016801F470110291006847
:1003200000F4803001900299022000EB914002908D
:10033000019860B9FFE7029840F60011C0F23D0154
:10034000484340F20001C2F20001086021E041F29E
:100350000400C4F202000068800300280CD5FFE707
:10036000029840F60011C0F23D01484340F20001FE
:10037000C2F2000108600BE0029841F20021C0F2D5
:100380007A01484340F20001C2F200010860FFE731
:10039000FFE709E040F20001C2F2000141F2002053
:1003A000C0F27A000860FFE741F20400C4F20200E4
:1003B0000068C0B2010940F27250C0F60000405C13
:1003C0000390039A40F20001C2F200010868D04095
:1003D000086004B0704700BF84B000200390029012
:1003E00041F20001C4F20201086840F48030086064
:1003F000FFE741F20000C4F20200006800F40030A0
:100400000290039801300390FFE7029900200190C9
:1004100039B9FFE70398B0F5A06018BF012001903B
:10042000FFE70198C0070028E3D1FFE741F2000091
:10043000C4F2020000688003002803D5FFE7012012
:10044000029002E000200290FFE70298012851D1BB
:10045000FFE742F20001C4F20201086840F0100018
:100460000860086820F007000860086840F0020093
:10047000086041F20401C4F20201009108680860BA
:1004800008680860086840F480600860086820F424
:100490007C100860086840F4E810086041F2000130
:1004A000C4F20201086840F080700860FFE741F282
:1004B0000000C4F2020000688001002801D4FFE7B8
:1004C000F5E741F20401C4F20201086820F00300DC
:1004D0000860086840F002000860FFE741F204008D
:1004E000C4F20200006800F00C00082801D0FFE709
:1004F000F4E700E0FFE704B07047704770477047CB
:10050000754600F02BF8AE4605006946534620F0CC
:100510000700854618B020B5FFF782FEBDE82040F1
:100520004FF000064FF000074FF000084FF0000BAF
:10053000AC46ACE8C009ACE8C009ACE8C009ACE81E
:10054000C00921F007018D46704710B50446AFF38E
:1005500000802046BDE81040FFF70FBE00487047FE
:100560000800002001491820ABBEFEE7260002006B
:1005700070470000000000000000010203040607AD
:1005800008090000A805000800000020080000007D
:1005900028010008B00500080800002060060000DF
:1005A000440100080000000000A24A04000000000E
:04000005080000ED02
:00000001FF
